{
  "address": "0xB691488b14AabE6C6cF46C8BB486DCF06d87d020",
  "abi": [
    {
      "inputs": [],
      "stateMutability": "nonpayable",
      "type": "constructor"
    },
    {
      "anonymous": false,
      "inputs": [
        {
          "indexed": true,
          "internalType": "address",
          "name": "owner",
          "type": "address"
        },
        {
          "indexed": true,
          "internalType": "address",
          "name": "approved",
          "type": "address"
        },
        {
          "indexed": true,
          "internalType": "uint256",
          "name": "tokenId",
          "type": "uint256"
        }
      ],
      "name": "Approval",
      "type": "event"
    },
    {
      "anonymous": false,
      "inputs": [
        {
          "indexed": true,
          "internalType": "address",
          "name": "owner",
          "type": "address"
        },
        {
          "indexed": true,
          "internalType": "address",
          "name": "operator",
          "type": "address"
        },
        {
          "indexed": false,
          "internalType": "bool",
          "name": "approved",
          "type": "bool"
        }
      ],
      "name": "ApprovalForAll",
      "type": "event"
    },
    {
      "anonymous": false,
      "inputs": [
        {
          "indexed": true,
          "internalType": "address",
          "name": "from",
          "type": "address"
        },
        {
          "indexed": true,
          "internalType": "address",
          "name": "to",
          "type": "address"
        },
        {
          "indexed": true,
          "internalType": "uint256",
          "name": "tokenId",
          "type": "uint256"
        }
      ],
      "name": "Transfer",
      "type": "event"
    },
    {
      "inputs": [
        {
          "internalType": "address",
          "name": "_admin",
          "type": "address"
        }
      ],
      "name": "addAdmin",
      "outputs": [],
      "stateMutability": "nonpayable",
      "type": "function"
    },
    {
      "inputs": [
        {
          "internalType": "address",
          "name": "",
          "type": "address"
        }
      ],
      "name": "admins",
      "outputs": [
        {
          "internalType": "bool",
          "name": "",
          "type": "bool"
        }
      ],
      "stateMutability": "view",
      "type": "function"
    },
    {
      "inputs": [
        {
          "internalType": "address",
          "name": "to",
          "type": "address"
        },
        {
          "internalType": "uint256",
          "name": "tokenId",
          "type": "uint256"
        }
      ],
      "name": "approve",
      "outputs": [],
      "stateMutability": "nonpayable",
      "type": "function"
    },
    {
      "inputs": [
        {
          "internalType": "address",
          "name": "owner",
          "type": "address"
        }
      ],
      "name": "balanceOf",
      "outputs": [
        {
          "internalType": "uint256",
          "name": "",
          "type": "uint256"
        }
      ],
      "stateMutability": "view",
      "type": "function"
    },
    {
      "inputs": [
        {
          "internalType": "uint256",
          "name": "tokenId",
          "type": "uint256"
        }
      ],
      "name": "getApproved",
      "outputs": [
        {
          "internalType": "address",
          "name": "",
          "type": "address"
        }
      ],
      "stateMutability": "view",
      "type": "function"
    },
    {
      "inputs": [
        {
          "internalType": "uint256",
          "name": "_tokenId",
          "type": "uint256"
        }
      ],
      "name": "getRemaining",
      "outputs": [
        {
          "internalType": "uint32",
          "name": "",
          "type": "uint32"
        }
      ],
      "stateMutability": "view",
      "type": "function"
    },
    {
      "inputs": [
        {
          "internalType": "address",
          "name": "_owner",
          "type": "address"
        }
      ],
      "name": "getTokenIdsByOwner",
      "outputs": [
        {
          "internalType": "uint256[]",
          "name": "",
          "type": "uint256[]"
        }
      ],
      "stateMutability": "view",
      "type": "function"
    },
    {
      "inputs": [
        {
          "internalType": "uint256",
          "name": "_tokenId",
          "type": "uint256"
        }
      ],
      "name": "getTotal",
      "outputs": [
        {
          "internalType": "uint32",
          "name": "",
          "type": "uint32"
        }
      ],
      "stateMutability": "view",
      "type": "function"
    },
    {
      "inputs": [
        {
          "internalType": "address",
          "name": "owner",
          "type": "address"
        },
        {
          "internalType": "address",
          "name": "operator",
          "type": "address"
        }
      ],
      "name": "isApprovedForAll",
      "outputs": [
        {
          "internalType": "bool",
          "name": "",
          "type": "bool"
        }
      ],
      "stateMutability": "view",
      "type": "function"
    },
    {
      "inputs": [
        {
          "internalType": "address",
          "name": "_to",
          "type": "address"
        },
        {
          "internalType": "uint32",
          "name": "_total",
          "type": "uint32"
        },
        {
          "internalType": "uint32",
          "name": "_remaining",
          "type": "uint32"
        }
      ],
      "name": "mint",
      "outputs": [],
      "stateMutability": "nonpayable",
      "type": "function"
    },
    {
      "inputs": [],
      "name": "name",
      "outputs": [
        {
          "internalType": "string",
          "name": "",
          "type": "string"
        }
      ],
      "stateMutability": "view",
      "type": "function"
    },
    {
      "inputs": [
        {
          "internalType": "uint256",
          "name": "tokenId",
          "type": "uint256"
        }
      ],
      "name": "ownerOf",
      "outputs": [
        {
          "internalType": "address",
          "name": "",
          "type": "address"
        }
      ],
      "stateMutability": "view",
      "type": "function"
    },
    {
      "inputs": [
        {
          "internalType": "uint256",
          "name": "",
          "type": "uint256"
        }
      ],
      "name": "remaining",
      "outputs": [
        {
          "internalType": "uint32",
          "name": "",
          "type": "uint32"
        }
      ],
      "stateMutability": "view",
      "type": "function"
    },
    {
      "inputs": [
        {
          "internalType": "address",
          "name": "_admin",
          "type": "address"
        }
      ],
      "name": "removeAdmin",
      "outputs": [],
      "stateMutability": "nonpayable",
      "type": "function"
    },
    {
      "inputs": [
        {
          "internalType": "address",
          "name": "from",
          "type": "address"
        },
        {
          "internalType": "address",
          "name": "to",
          "type": "address"
        },
        {
          "internalType": "uint256",
          "name": "tokenId",
          "type": "uint256"
        }
      ],
      "name": "safeTransferFrom",
      "outputs": [],
      "stateMutability": "nonpayable",
      "type": "function"
    },
    {
      "inputs": [
        {
          "internalType": "address",
          "name": "from",
          "type": "address"
        },
        {
          "internalType": "address",
          "name": "to",
          "type": "address"
        },
        {
          "internalType": "uint256",
          "name": "tokenId",
          "type": "uint256"
        },
        {
          "internalType": "bytes",
          "name": "_data",
          "type": "bytes"
        }
      ],
      "name": "safeTransferFrom",
      "outputs": [],
      "stateMutability": "nonpayable",
      "type": "function"
    },
    {
      "inputs": [
        {
          "internalType": "address",
          "name": "operator",
          "type": "address"
        },
        {
          "internalType": "bool",
          "name": "approved",
          "type": "bool"
        }
      ],
      "name": "setApprovalForAll",
      "outputs": [],
      "stateMutability": "nonpayable",
      "type": "function"
    },
    {
      "inputs": [
        {
          "internalType": "uint256",
          "name": "_tokenId",
          "type": "uint256"
        },
        {
          "internalType": "uint32",
          "name": "_remaining",
          "type": "uint32"
        }
      ],
      "name": "setRemaining",
      "outputs": [],
      "stateMutability": "nonpayable",
      "type": "function"
    },
    {
      "inputs": [
        {
          "internalType": "uint32",
          "name": "total_",
          "type": "uint32"
        },
        {
          "internalType": "uint32",
          "name": "remain_",
          "type": "uint32"
        },
        {
          "internalType": "string",
          "name": "uri",
          "type": "string"
        }
      ],
      "name": "setUri",
      "outputs": [],
      "stateMutability": "nonpayable",
      "type": "function"
    },
    {
      "inputs": [
        {
          "internalType": "bytes4",
          "name": "interfaceId",
          "type": "bytes4"
        }
      ],
      "name": "supportsInterface",
      "outputs": [
        {
          "internalType": "bool",
          "name": "",
          "type": "bool"
        }
      ],
      "stateMutability": "view",
      "type": "function"
    },
    {
      "inputs": [],
      "name": "symbol",
      "outputs": [
        {
          "internalType": "string",
          "name": "",
          "type": "string"
        }
      ],
      "stateMutability": "view",
      "type": "function"
    },
    {
      "inputs": [
        {
          "internalType": "uint256",
          "name": "index",
          "type": "uint256"
        }
      ],
      "name": "tokenByIndex",
      "outputs": [
        {
          "internalType": "uint256",
          "name": "",
          "type": "uint256"
        }
      ],
      "stateMutability": "view",
      "type": "function"
    },
    {
      "inputs": [
        {
          "internalType": "address",
          "name": "owner",
          "type": "address"
        },
        {
          "internalType": "uint256",
          "name": "index",
          "type": "uint256"
        }
      ],
      "name": "tokenOfOwnerByIndex",
      "outputs": [
        {
          "internalType": "uint256",
          "name": "",
          "type": "uint256"
        }
      ],
      "stateMutability": "view",
      "type": "function"
    },
    {
      "inputs": [
        {
          "internalType": "uint256",
          "name": "tokenId",
          "type": "uint256"
        }
      ],
      "name": "tokenURI",
      "outputs": [
        {
          "internalType": "string",
          "name": "",
          "type": "string"
        }
      ],
      "stateMutability": "view",
      "type": "function"
    },
    {
      "inputs": [
        {
          "internalType": "uint256",
          "name": "",
          "type": "uint256"
        }
      ],
      "name": "total",
      "outputs": [
        {
          "internalType": "uint32",
          "name": "",
          "type": "uint32"
        }
      ],
      "stateMutability": "view",
      "type": "function"
    },
    {
      "inputs": [],
      "name": "totalSupply",
      "outputs": [
        {
          "internalType": "uint256",
          "name": "",
          "type": "uint256"
        }
      ],
      "stateMutability": "view",
      "type": "function"
    },
    {
      "inputs": [
        {
          "internalType": "address",
          "name": "from",
          "type": "address"
        },
        {
          "internalType": "address",
          "name": "to",
          "type": "address"
        },
        {
          "internalType": "uint256",
          "name": "tokenId",
          "type": "uint256"
        }
      ],
      "name": "transferFrom",
      "outputs": [],
      "stateMutability": "nonpayable",
      "type": "function"
    }
  ],
  "transactionHash": "0x3c99cfd998dbe37aa5e92e8267855abc08cd035c681f5969c12b3ac84895141e",
  "args": [],
  "numDeployments": 1,
  "solcInputHash": "43289447916b26015b5df05027475bfc",
  "bytecode": "0x60806040523480156200001157600080fd5b506040518060400160405280600b81526020017f5265616c4d6574614b65790000000000000000000000000000000000000000008152506040518060400160405280600381526020017f524d4b000000000000000000000000000000000000000000000000000000000081525081600090805190602001906200009692919062000110565b508060019080519060200190620000af92919062000110565b5050506001600a60003373ffffffffffffffffffffffffffffffffffffffff1673ffffffffffffffffffffffffffffffffffffffff16815260200190815260200160002060006101000a81548160ff02191690831515021790555062000225565b8280546200011e90620001c0565b90600052602060002090601f0160209004810192826200014257600085556200018e565b82601f106200015d57805160ff19168380011785556200018e565b828001600101855582156200018e579182015b828111156200018d57825182559160200191906001019062000170565b5b5090506200019d9190620001a1565b5090565b5b80821115620001bc576000816000905550600101620001a2565b5090565b60006002820490506001821680620001d957607f821691505b60208210811415620001f057620001ef620001f6565b5b50919050565b7f4e487b7100000000000000000000000000000000000000000000000000000000600052602260045260246000fd5b61399d80620002356000396000f3fe608060405234801561001057600080fd5b50600436106101a95760003560e01c80634f6ccce7116100f957806395d89b4111610097578063b88d4fde11610071578063b88d4fde14610528578063c6a8176614610544578063c87b56dd14610560578063e985e9c514610590576101a9565b806395d89b41146104be578063a22cb465146104dc578063b119ebfe146104f8576101a9565b806370480275116100d3578063704802751461043a57806370a0823114610456578063770ad4e9146104865780637763605e146104a2576101a9565b80634f6ccce7146103aa5780636352211e146103da5780636970bb0a1461040a576101a9565b806318160ddd1161016657806323b872dd1161014057806323b872dd146103125780632f745c591461032e57806342842e0e1461035e578063429b62e51461037a576101a9565b806318160ddd146102945780631feef08e146102b2578063224cb5d0146102e2576101a9565b806301ffc9a7146101ae5780630361bf14146101de57806306fdde031461020e578063081812fc1461022c578063095ea7b31461025c5780631785f53c14610278575b600080fd5b6101c860048036038101906101c391906129b9565b6105c0565b6040516101d59190613306565b60405180910390f35b6101f860048036038101906101f39190612a0b565b61063a565b604051610205919061359e565b60405180910390f35b61021661065d565b6040516102239190613321565b60405180910390f35b61024660048036038101906102419190612a0b565b6106ef565b604051610253919061327d565b60405180910390f35b6102766004803603810190610271919061292e565b610774565b005b610292600480360381019061028d91906127c3565b61088c565b005b61029c61097a565b6040516102a99190613583565b60405180910390f35b6102cc60048036038101906102c79190612a0b565b610987565b6040516102d9919061359e565b60405180910390f35b6102fc60048036038101906102f79190612a0b565b6109b4565b604051610309919061359e565b60405180910390f35b61032c60048036038101906103279190612828565b6109e1565b005b6103486004803603810190610343919061292e565b610a41565b6040516103559190613583565b60405180910390f35b61037860048036038101906103739190612828565b610ae6565b005b610394600480360381019061038f91906127c3565b610b06565b6040516103a19190613306565b60405180910390f35b6103c460048036038101906103bf9190612a0b565b610b26565b6040516103d19190613583565b60405180910390f35b6103f460048036038101906103ef9190612a0b565b610bbd565b604051610401919061327d565b60405180910390f35b610424600480360381019061041f91906127c3565b610c6f565b60405161043191906132e4565b60405180910390f35b610454600480360381019061044f91906127c3565b610deb565b005b610470600480360381019061046b91906127c3565b610ed9565b60405161047d9190613583565b60405180910390f35b6104a0600480360381019061049b9190612a34565b610f91565b005b6104bc60048036038101906104b7919061296a565b61105a565b005b6104c6611217565b6040516104d39190613321565b60405180910390f35b6104f660048036038101906104f191906128f2565b6112a9565b005b610512600480360381019061050d9190612a0b565b6112bf565b60405161051f919061359e565b60405180910390f35b610542600480360381019061053d9190612877565b6112e2565b005b61055e60048036038101906105599190612a70565b611344565b005b61057a60048036038101906105759190612a0b565b61141d565b6040516105879190613321565b60405180910390f35b6105aa60048036038101906105a591906127ec565b6114de565b6040516105b79190613306565b60405180910390f35b60007f780e9d63000000000000000000000000000000000000000000000000000000007bffffffffffffffffffffffffffffffffffffffffffffffffffffffff1916827bffffffffffffffffffffffffffffffffffffffffffffffffffffffff19161480610633575061063282611572565b5b9050919050565b600c6020528060005260406000206000915054906101000a900463ffffffff1681565b60606000805461066c906137db565b80601f0160208091040260200160405190810160405280929190818152602001828054610698906137db565b80156106e55780601f106106ba576101008083540402835291602001916106e5565b820191906000526020600020905b8154815290600101906020018083116106c857829003601f168201915b5050505050905090565b60006106fa82611654565b610739576040517f08c379a0000000000000000000000000000000000000000000000000000000008152600401610730906134a3565b60405180910390fd5b6004600083815260200190815260200160002060009054906101000a900473ffffffffffffffffffffffffffffffffffffffff169050919050565b600061077f82610bbd565b90508073ffffffffffffffffffffffffffffffffffffffff168373ffffffffffffffffffffffffffffffffffffffff1614156107f0576040517f08c379a00000000000000000000000000000000000000000000000000000000081526004016107e7906134e3565b60405180910390fd5b8073ffffffffffffffffffffffffffffffffffffffff1661080f6116c0565b73ffffffffffffffffffffffffffffffffffffffff16148061083e575061083d816108386116c0565b6114de565b5b61087d576040517f08c379a000000000000000000000000000000000000000000000000000000000815260040161087490613423565b60405180910390fd5b61088783836116c8565b505050565b60011515600a60003373ffffffffffffffffffffffffffffffffffffffff1673ffffffffffffffffffffffffffffffffffffffff16815260200190815260200160002060009054906101000a900460ff1615151461091f576040517f08c379a000000000000000000000000000000000000000000000000000000000815260040161091690613503565b60405180910390fd5b6000600a60008373ffffffffffffffffffffffffffffffffffffffff1673ffffffffffffffffffffffffffffffffffffffff16815260200190815260200160002060006101000a81548160ff02191690831515021790555050565b6000600880549050905090565b6000600b600083815260200190815260200160002060009054906101000a900463ffffffff169050919050565b6000600c600083815260200190815260200160002060009054906101000a900463ffffffff169050919050565b6109f26109ec6116c0565b82611781565b610a31576040517f08c379a0000000000000000000000000000000000000000000000000000000008152600401610a2890613523565b60405180910390fd5b610a3c83838361185f565b505050565b6000610a4c83610ed9565b8210610a8d576040517f08c379a0000000000000000000000000000000000000000000000000000000008152600401610a8490613343565b60405180910390fd5b600660008473ffffffffffffffffffffffffffffffffffffffff1673ffffffffffffffffffffffffffffffffffffffff168152602001908152602001600020600083815260200190815260200160002054905092915050565b610b01838383604051806020016040528060008152506112e2565b505050565b600a6020528060005260406000206000915054906101000a900460ff1681565b6000610b3061097a565b8210610b71576040517f08c379a0000000000000000000000000000000000000000000000000000000008152600401610b6890613543565b60405180910390fd5b60088281548110610bab577f4e487b7100000000000000000000000000000000000000000000000000000000600052603260045260246000fd5b90600052602060002001549050919050565b6000806002600084815260200190815260200160002060009054906101000a900473ffffffffffffffffffffffffffffffffffffffff169050600073ffffffffffffffffffffffffffffffffffffffff168173ffffffffffffffffffffffffffffffffffffffff161415610c66576040517f08c379a0000000000000000000000000000000000000000000000000000000008152600401610c5d90613463565b60405180910390fd5b80915050919050565b60606000610c7c83610ed9565b90506000811415610cff57600067ffffffffffffffff811115610cc8577f4e487b7100000000000000000000000000000000000000000000000000000000600052604160045260246000fd5b604051908082528060200260200182016040528015610cf65781602001602082028036833780820191505090505b50915050610de6565b60008167ffffffffffffffff811115610d41577f4e487b7100000000000000000000000000000000000000000000000000000000600052604160045260246000fd5b604051908082528060200260200182016040528015610d6f5781602001602082028036833780820191505090505b50905060005b82811015610ddf57610d878582610a41565b828281518110610dc0577f4e487b7100000000000000000000000000000000000000000000000000000000600052603260045260246000fd5b6020026020010181815250508080610dd79061380d565b915050610d75565b8193505050505b919050565b60011515600a60003373ffffffffffffffffffffffffffffffffffffffff1673ffffffffffffffffffffffffffffffffffffffff16815260200190815260200160002060009054906101000a900460ff16151514610e7e576040517f08c379a0000000000000000000000000000000000000000000000000000000008152600401610e7590613503565b60405180910390fd5b6001600a60008373ffffffffffffffffffffffffffffffffffffffff1673ffffffffffffffffffffffffffffffffffffffff16815260200190815260200160002060006101000a81548160ff02191690831515021790555050565b60008073ffffffffffffffffffffffffffffffffffffffff168273ffffffffffffffffffffffffffffffffffffffff161415610f4a576040517f08c379a0000000000000000000000000000000000000000000000000000000008152600401610f4190613443565b60405180910390fd5b600360008373ffffffffffffffffffffffffffffffffffffffff1673ffffffffffffffffffffffffffffffffffffffff168152602001908152602001600020549050919050565b60011515600a60003373ffffffffffffffffffffffffffffffffffffffff1673ffffffffffffffffffffffffffffffffffffffff16815260200190815260200160002060009054906101000a900460ff16151514611024576040517f08c379a000000000000000000000000000000000000000000000000000000000815260040161101b90613503565b60405180910390fd5b80600c600084815260200190815260200160002060006101000a81548163ffffffff021916908363ffffffff1602179055505050565b60011515600a60003373ffffffffffffffffffffffffffffffffffffffff1673ffffffffffffffffffffffffffffffffffffffff16815260200190815260200160002060009054906101000a900460ff161515146110ed576040517f08c379a00000000000000000000000000000000000000000000000000000000081526004016110e490613503565b60405180910390fd5b60008263ffffffff1611611136576040517f08c379a000000000000000000000000000000000000000000000000000000000815260040161112d906133a3565b60405180910390fd5b60008163ffffffff1611801561115857508163ffffffff168163ffffffff1611155b611197576040517f08c379a000000000000000000000000000000000000000000000000000000000815260040161118e90613563565b60405180910390fd5b60006111a161097a565b90506111ad8482611abb565b82600b600083815260200190815260200160002060006101000a81548163ffffffff021916908363ffffffff16021790555081600c600083815260200190815260200160002060006101000a81548163ffffffff021916908363ffffffff16021790555050505050565b606060018054611226906137db565b80601f0160208091040260200160405190810160405280929190818152602001828054611252906137db565b801561129f5780601f106112745761010080835404028352916020019161129f565b820191906000526020600020905b81548152906001019060200180831161128257829003601f168201915b5050505050905090565b6112bb6112b46116c0565b8383611ad9565b5050565b600b6020528060005260406000206000915054906101000a900463ffffffff1681565b6112f36112ed6116c0565b83611781565b611332576040517f08c379a000000000000000000000000000000000000000000000000000000000815260040161132990613523565b60405180910390fd5b61133e84848484611c46565b50505050565b60011515600a60003373ffffffffffffffffffffffffffffffffffffffff1673ffffffffffffffffffffffffffffffffffffffff16815260200190815260200160002060009054906101000a900460ff161515146113d7576040517f08c379a00000000000000000000000000000000000000000000000000000000081526004016113ce90613503565b60405180910390fd5b8181600d60006113e78888611ca2565b67ffffffffffffffff1667ffffffffffffffff16815260200190815260200160002091906114169291906125f0565b5050505050565b6060600d600061142c84611cc9565b67ffffffffffffffff1667ffffffffffffffff1681526020019081526020016000208054611459906137db565b80601f0160208091040260200160405190810160405280929190818152602001828054611485906137db565b80156114d25780601f106114a7576101008083540402835291602001916114d2565b820191906000526020600020905b8154815290600101906020018083116114b557829003601f168201915b50505050509050919050565b6000600560008473ffffffffffffffffffffffffffffffffffffffff1673ffffffffffffffffffffffffffffffffffffffff16815260200190815260200160002060008373ffffffffffffffffffffffffffffffffffffffff1673ffffffffffffffffffffffffffffffffffffffff16815260200190815260200160002060009054906101000a900460ff16905092915050565b60007f80ac58cd000000000000000000000000000000000000000000000000000000007bffffffffffffffffffffffffffffffffffffffffffffffffffffffff1916827bffffffffffffffffffffffffffffffffffffffffffffffffffffffff1916148061163d57507f5b5e139f000000000000000000000000000000000000000000000000000000007bffffffffffffffffffffffffffffffffffffffffffffffffffffffff1916827bffffffffffffffffffffffffffffffffffffffffffffffffffffffff1916145b8061164d575061164c82611d22565b5b9050919050565b60008073ffffffffffffffffffffffffffffffffffffffff166002600084815260200190815260200160002060009054906101000a900473ffffffffffffffffffffffffffffffffffffffff1673ffffffffffffffffffffffffffffffffffffffff1614159050919050565b600033905090565b816004600083815260200190815260200160002060006101000a81548173ffffffffffffffffffffffffffffffffffffffff021916908373ffffffffffffffffffffffffffffffffffffffff160217905550808273ffffffffffffffffffffffffffffffffffffffff1661173b83610bbd565b73ffffffffffffffffffffffffffffffffffffffff167f8c5be1e5ebec7d5bd14f71427d1e84f3dd0314c0f7b2291e5b200ac8c7c3b92560405160405180910390a45050565b600061178c82611654565b6117cb576040517f08c379a00000000000000000000000000000000000000000000000000000000081526004016117c290613403565b60405180910390fd5b60006117d683610bbd565b90508073ffffffffffffffffffffffffffffffffffffffff168473ffffffffffffffffffffffffffffffffffffffff16148061184557508373ffffffffffffffffffffffffffffffffffffffff1661182d846106ef565b73ffffffffffffffffffffffffffffffffffffffff16145b80611856575061185581856114de565b5b91505092915050565b8273ffffffffffffffffffffffffffffffffffffffff1661187f82610bbd565b73ffffffffffffffffffffffffffffffffffffffff16146118d5576040517f08c379a00000000000000000000000000000000000000000000000000000000081526004016118cc906134c3565b60405180910390fd5b600073ffffffffffffffffffffffffffffffffffffffff168273ffffffffffffffffffffffffffffffffffffffff161415611945576040517f08c379a000000000000000000000000000000000000000000000000000000000815260040161193c906133c3565b60405180910390fd5b611950838383611d8c565b61195b6000826116c8565b6001600360008573ffffffffffffffffffffffffffffffffffffffff1673ffffffffffffffffffffffffffffffffffffffff16815260200190815260200160002060008282546119ab91906136e1565b925050819055506001600360008473ffffffffffffffffffffffffffffffffffffffff1673ffffffffffffffffffffffffffffffffffffffff1681526020019081526020016000206000828254611a02919061368b565b92505081905550816002600083815260200190815260200160002060006101000a81548173ffffffffffffffffffffffffffffffffffffffff021916908373ffffffffffffffffffffffffffffffffffffffff160217905550808273ffffffffffffffffffffffffffffffffffffffff168473ffffffffffffffffffffffffffffffffffffffff167fddf252ad1be2c89b69c2b068fc378daa952ba7f163c4a11628f55a4df523b3ef60405160405180910390a4505050565b611ad5828260405180602001604052806000815250611ea0565b5050565b8173ffffffffffffffffffffffffffffffffffffffff168373ffffffffffffffffffffffffffffffffffffffff161415611b48576040517f08c379a0000000000000000000000000000000000000000000000000000000008152600401611b3f906133e3565b60405180910390fd5b80600560008573ffffffffffffffffffffffffffffffffffffffff1673ffffffffffffffffffffffffffffffffffffffff16815260200190815260200160002060008473ffffffffffffffffffffffffffffffffffffffff1673ffffffffffffffffffffffffffffffffffffffff16815260200190815260200160002060006101000a81548160ff0219169083151502179055508173ffffffffffffffffffffffffffffffffffffffff168373ffffffffffffffffffffffffffffffffffffffff167f17307eab39ab6107e8899845ad3d59bd9653f200f220920489ca2b5937696c3183604051611c399190613306565b60405180910390a3505050565b611c5184848461185f565b611c5d84848484611efb565b611c9c576040517f08c379a0000000000000000000000000000000000000000000000000000000008152600401611c9390613363565b60405180910390fd5b50505050565b60008163ffffffff1660208463ffffffff1667ffffffffffffffff16901b17905092915050565b6000611d1b600b600084815260200190815260200160002060009054906101000a900463ffffffff16600c600085815260200190815260200160002060009054906101000a900463ffffffff16611ca2565b9050919050565b60007f01ffc9a7000000000000000000000000000000000000000000000000000000007bffffffffffffffffffffffffffffffffffffffffffffffffffffffff1916827bffffffffffffffffffffffffffffffffffffffffffffffffffffffff1916149050919050565b611d97838383612092565b600073ffffffffffffffffffffffffffffffffffffffff168373ffffffffffffffffffffffffffffffffffffffff161415611dda57611dd581612097565b611e19565b8173ffffffffffffffffffffffffffffffffffffffff168373ffffffffffffffffffffffffffffffffffffffff1614611e1857611e1783826120e0565b5b5b600073ffffffffffffffffffffffffffffffffffffffff168273ffffffffffffffffffffffffffffffffffffffff161415611e5c57611e578161224d565b611e9b565b8273ffffffffffffffffffffffffffffffffffffffff168273ffffffffffffffffffffffffffffffffffffffff1614611e9a57611e998282612390565b5b5b505050565b611eaa838361240f565b611eb76000848484611efb565b611ef6576040517f08c379a0000000000000000000000000000000000000000000000000000000008152600401611eed90613363565b60405180910390fd5b505050565b6000611f1c8473ffffffffffffffffffffffffffffffffffffffff166125dd565b15612085578373ffffffffffffffffffffffffffffffffffffffff1663150b7a02611f456116c0565b8786866040518563ffffffff1660e01b8152600401611f679493929190613298565b602060405180830381600087803b158015611f8157600080fd5b505af1925050508015611fb257506040513d601f19601f82011682018060405250810190611faf91906129e2565b60015b612035573d8060008114611fe2576040519150601f19603f3d011682016040523d82523d6000602084013e611fe7565b606091505b5060008151141561202d576040517f08c379a000000000000000000000000000000000000000000000000000000000815260040161202490613363565b60405180910390fd5b805181602001fd5b63150b7a0260e01b7bffffffffffffffffffffffffffffffffffffffffffffffffffffffff1916817bffffffffffffffffffffffffffffffffffffffffffffffffffffffff19161491505061208a565b600190505b949350505050565b505050565b6008805490506009600083815260200190815260200160002081905550600881908060018154018082558091505060019003906000526020600020016000909190919091505550565b600060016120ed84610ed9565b6120f791906136e1565b90506000600760008481526020019081526020016000205490508181146121dc576000600660008673ffffffffffffffffffffffffffffffffffffffff1673ffffffffffffffffffffffffffffffffffffffff168152602001908152602001600020600084815260200190815260200160002054905080600660008773ffffffffffffffffffffffffffffffffffffffff1673ffffffffffffffffffffffffffffffffffffffff168152602001908152602001600020600084815260200190815260200160002081905550816007600083815260200190815260200160002081905550505b6007600084815260200190815260200160002060009055600660008573ffffffffffffffffffffffffffffffffffffffff1673ffffffffffffffffffffffffffffffffffffffff16815260200190815260200160002060008381526020019081526020016000206000905550505050565b6000600160088054905061226191906136e1565b90506000600960008481526020019081526020016000205490506000600883815481106122b7577f4e487b7100000000000000000000000000000000000000000000000000000000600052603260045260246000fd5b9060005260206000200154905080600883815481106122ff577f4e487b7100000000000000000000000000000000000000000000000000000000600052603260045260246000fd5b906000526020600020018190555081600960008381526020019081526020016000208190555060096000858152602001908152602001600020600090556008805480612374577f4e487b7100000000000000000000000000000000000000000000000000000000600052603160045260246000fd5b6001900381819060005260206000200160009055905550505050565b600061239b83610ed9565b905081600660008573ffffffffffffffffffffffffffffffffffffffff1673ffffffffffffffffffffffffffffffffffffffff168152602001908152602001600020600083815260200190815260200160002081905550806007600084815260200190815260200160002081905550505050565b600073ffffffffffffffffffffffffffffffffffffffff168273ffffffffffffffffffffffffffffffffffffffff16141561247f576040517f08c379a000000000000000000000000000000000000000000000000000000000815260040161247690613483565b60405180910390fd5b61248881611654565b156124c8576040517f08c379a00000000000000000000000000000000000000000000000000000000081526004016124bf90613383565b60405180910390fd5b6124d460008383611d8c565b6001600360008473ffffffffffffffffffffffffffffffffffffffff1673ffffffffffffffffffffffffffffffffffffffff1681526020019081526020016000206000828254612524919061368b565b92505081905550816002600083815260200190815260200160002060006101000a81548173ffffffffffffffffffffffffffffffffffffffff021916908373ffffffffffffffffffffffffffffffffffffffff160217905550808273ffffffffffffffffffffffffffffffffffffffff16600073ffffffffffffffffffffffffffffffffffffffff167fddf252ad1be2c89b69c2b068fc378daa952ba7f163c4a11628f55a4df523b3ef60405160405180910390a45050565b600080823b905060008111915050919050565b8280546125fc906137db565b90600052602060002090601f01602090048101928261261e5760008555612665565b82601f1061263757803560ff1916838001178555612665565b82800160010185558215612665579182015b82811115612664578235825591602001919060010190612649565b5b5090506126729190612676565b5090565b5b8082111561268f576000816000905550600101612677565b5090565b60006126a66126a1846135ea565b6135b9565b9050828152602081018484840111156126be57600080fd5b6126c9848285613799565b509392505050565b6000813590506126e0816138f4565b92915050565b6000813590506126f58161390b565b92915050565b60008135905061270a81613922565b92915050565b60008151905061271f81613922565b92915050565b600082601f83011261273657600080fd5b8135612746848260208601612693565b91505092915050565b60008083601f84011261276157600080fd5b8235905067ffffffffffffffff81111561277a57600080fd5b60208301915083600182028301111561279257600080fd5b9250929050565b6000813590506127a881613939565b92915050565b6000813590506127bd81613950565b92915050565b6000602082840312156127d557600080fd5b60006127e3848285016126d1565b91505092915050565b600080604083850312156127ff57600080fd5b600061280d858286016126d1565b925050602061281e858286016126d1565b9150509250929050565b60008060006060848603121561283d57600080fd5b600061284b868287016126d1565b935050602061285c868287016126d1565b925050604061286d86828701612799565b9150509250925092565b6000806000806080858703121561288d57600080fd5b600061289b878288016126d1565b94505060206128ac878288016126d1565b93505060406128bd87828801612799565b925050606085013567ffffffffffffffff8111156128da57600080fd5b6128e687828801612725565b91505092959194509250565b6000806040838503121561290557600080fd5b6000612913858286016126d1565b9250506020612924858286016126e6565b9150509250929050565b6000806040838503121561294157600080fd5b600061294f858286016126d1565b925050602061296085828601612799565b9150509250929050565b60008060006060848603121561297f57600080fd5b600061298d868287016126d1565b935050602061299e868287016127ae565b92505060406129af868287016127ae565b9150509250925092565b6000602082840312156129cb57600080fd5b60006129d9848285016126fb565b91505092915050565b6000602082840312156129f457600080fd5b6000612a0284828501612710565b91505092915050565b600060208284031215612a1d57600080fd5b6000612a2b84828501612799565b91505092915050565b60008060408385031215612a4757600080fd5b6000612a5585828601612799565b9250506020612a66858286016127ae565b9150509250929050565b60008060008060608587031215612a8657600080fd5b6000612a94878288016127ae565b9450506020612aa5878288016127ae565b935050604085013567ffffffffffffffff811115612ac257600080fd5b612ace8782880161274f565b925092505092959194509250565b6000612ae88383613250565b60208301905092915050565b612afd81613715565b82525050565b6000612b0e8261362a565b612b188185613658565b9350612b238361361a565b8060005b83811015612b54578151612b3b8882612adc565b9750612b468361364b565b925050600181019050612b27565b5085935050505092915050565b612b6a81613727565b82525050565b6000612b7b82613635565b612b858185613669565b9350612b958185602086016137a8565b612b9e816138e3565b840191505092915050565b6000612bb482613640565b612bbe818561367a565b9350612bce8185602086016137a8565b612bd7816138e3565b840191505092915050565b6000612bef602b8361367a565b91507f455243373231456e756d657261626c653a206f776e657220696e646578206f7560008301527f74206f6620626f756e64730000000000000000000000000000000000000000006020830152604082019050919050565b6000612c5560328361367a565b91507f4552433732313a207472616e7366657220746f206e6f6e20455243373231526560008301527f63656976657220696d706c656d656e74657200000000000000000000000000006020830152604082019050919050565b6000612cbb601c8361367a565b91507f4552433732313a20746f6b656e20616c7265616479206d696e746564000000006000830152602082019050919050565b6000612cfb601a8361367a565b91507f746f74616c206d757374206265206772656174657220746f20300000000000006000830152602082019050919050565b6000612d3b60248361367a565b91507f4552433732313a207472616e7366657220746f20746865207a65726f2061646460008301527f72657373000000000000000000000000000000000000000000000000000000006020830152604082019050919050565b6000612da160198361367a565b91507f4552433732313a20617070726f766520746f2063616c6c6572000000000000006000830152602082019050919050565b6000612de1602c8361367a565b91507f4552433732313a206f70657261746f7220717565727920666f72206e6f6e657860008301527f697374656e7420746f6b656e00000000000000000000000000000000000000006020830152604082019050919050565b6000612e4760388361367a565b91507f4552433732313a20617070726f76652063616c6c6572206973206e6f74206f7760008301527f6e6572206e6f7220617070726f76656420666f7220616c6c00000000000000006020830152604082019050919050565b6000612ead602a8361367a565b91507f4552433732313a2062616c616e636520717565727920666f7220746865207a6560008301527f726f2061646472657373000000000000000000000000000000000000000000006020830152604082019050919050565b6000612f1360298361367a565b91507f4552433732313a206f776e657220717565727920666f72206e6f6e657869737460008301527f656e7420746f6b656e00000000000000000000000000000000000000000000006020830152604082019050919050565b6000612f7960208361367a565b91507f4552433732313a206d696e7420746f20746865207a65726f20616464726573736000830152602082019050919050565b6000612fb9602c8361367a565b91507f4552433732313a20617070726f76656420717565727920666f72206e6f6e657860008301527f697374656e7420746f6b656e00000000000000000000000000000000000000006020830152604082019050919050565b600061301f60298361367a565b91507f4552433732313a207472616e73666572206f6620746f6b656e2074686174206960008301527f73206e6f74206f776e00000000000000000000000000000000000000000000006020830152604082019050919050565b600061308560218361367a565b91507f4552433732313a20617070726f76616c20746f2063757272656e74206f776e6560008301527f72000000000000000000000000000000000000000000000000000000000000006020830152604082019050919050565b60006130eb60138361367a565b91507f43616c6c6572206973206e6f742061646d696e000000000000000000000000006000830152602082019050919050565b600061312b60318361367a565b91507f4552433732313a207472616e736665722063616c6c6572206973206e6f74206f60008301527f776e6572206e6f7220617070726f7665640000000000000000000000000000006020830152604082019050919050565b6000613191602c8361367a565b91507f455243373231456e756d657261626c653a20676c6f62616c20696e646578206f60008301527f7574206f6620626f756e647300000000000000000000000000000000000000006020830152604082019050919050565b60006131f760328361367a565b91507f72656d61696e206d7573742062652067726561746572207468616e203020616e60008301527f64206c65737320657175616c20746f74616c00000000000000000000000000006020830152604082019050919050565b6132598161377f565b82525050565b6132688161377f565b82525050565b61327781613789565b82525050565b60006020820190506132926000830184612af4565b92915050565b60006080820190506132ad6000830187612af4565b6132ba6020830186612af4565b6132c7604083018561325f565b81810360608301526132d98184612b70565b905095945050505050565b600060208201905081810360008301526132fe8184612b03565b905092915050565b600060208201905061331b6000830184612b61565b92915050565b6000602082019050818103600083015261333b8184612ba9565b905092915050565b6000602082019050818103600083015261335c81612be2565b9050919050565b6000602082019050818103600083015261337c81612c48565b9050919050565b6000602082019050818103600083015261339c81612cae565b9050919050565b600060208201905081810360008301526133bc81612cee565b9050919050565b600060208201905081810360008301526133dc81612d2e565b9050919050565b600060208201905081810360008301526133fc81612d94565b9050919050565b6000602082019050818103600083015261341c81612dd4565b9050919050565b6000602082019050818103600083015261343c81612e3a565b9050919050565b6000602082019050818103600083015261345c81612ea0565b9050919050565b6000602082019050818103600083015261347c81612f06565b9050919050565b6000602082019050818103600083015261349c81612f6c565b9050919050565b600060208201905081810360008301526134bc81612fac565b9050919050565b600060208201905081810360008301526134dc81613012565b9050919050565b600060208201905081810360008301526134fc81613078565b9050919050565b6000602082019050818103600083015261351c816130de565b9050919050565b6000602082019050818103600083015261353c8161311e565b9050919050565b6000602082019050818103600083015261355c81613184565b9050919050565b6000602082019050818103600083015261357c816131ea565b9050919050565b6000602082019050613598600083018461325f565b92915050565b60006020820190506135b3600083018461326e565b92915050565b6000604051905081810181811067ffffffffffffffff821117156135e0576135df6138b4565b5b8060405250919050565b600067ffffffffffffffff821115613605576136046138b4565b5b601f19601f8301169050602081019050919050565b6000819050602082019050919050565b600081519050919050565b600081519050919050565b600081519050919050565b6000602082019050919050565b600082825260208201905092915050565b600082825260208201905092915050565b600082825260208201905092915050565b60006136968261377f565b91506136a18361377f565b9250827fffffffffffffffffffffffffffffffffffffffffffffffffffffffffffffffff038211156136d6576136d5613856565b5b828201905092915050565b60006136ec8261377f565b91506136f78361377f565b92508282101561370a57613709613856565b5b828203905092915050565b60006137208261375f565b9050919050565b60008115159050919050565b60007fffffffff0000000000000000000000000000000000000000000000000000000082169050919050565b600073ffffffffffffffffffffffffffffffffffffffff82169050919050565b6000819050919050565b600063ffffffff82169050919050565b82818337600083830152505050565b60005b838110156137c65780820151818401526020810190506137ab565b838111156137d5576000848401525b50505050565b600060028204905060018216806137f357607f821691505b6020821081141561380757613806613885565b5b50919050565b60006138188261377f565b91507fffffffffffffffffffffffffffffffffffffffffffffffffffffffffffffffff82141561384b5761384a613856565b5b600182019050919050565b7f4e487b7100000000000000000000000000000000000000000000000000000000600052601160045260246000fd5b7f4e487b7100000000000000000000000000000000000000000000000000000000600052602260045260246000fd5b7f4e487b7100000000000000000000000000000000000000000000000000000000600052604160045260246000fd5b6000601f19601f8301169050919050565b6138fd81613715565b811461390857600080fd5b50565b61391481613727565b811461391f57600080fd5b50565b61392b81613733565b811461393657600080fd5b50565b6139428161377f565b811461394d57600080fd5b50565b61395981613789565b811461396457600080fd5b5056fea2646970667358221220c564cedd8339855aae3d1fc8b0eee1353a0016348a4e57c56f505dd58a9d4ad564736f6c63430008000033",
  "devdoc": {
    "kind": "dev",
    "methods": {
      "approve(address,uint256)": {
        "details": "See {IERC721-approve}."
      },
      "balanceOf(address)": {
        "details": "See {IERC721-balanceOf}."
      },
      "getApproved(uint256)": {
        "details": "See {IERC721-getApproved}."
      },
      "isApprovedForAll(address,address)": {
        "details": "See {IERC721-isApprovedForAll}."
      },
      "name()": {
        "details": "See {IERC721Metadata-name}."
      },
      "ownerOf(uint256)": {
        "details": "See {IERC721-ownerOf}."
      },
      "safeTransferFrom(address,address,uint256)": {
        "details": "See {IERC721-safeTransferFrom}."
      },
      "safeTransferFrom(address,address,uint256,bytes)": {
        "details": "See {IERC721-safeTransferFrom}."
      },
      "setApprovalForAll(address,bool)": {
        "details": "See {IERC721-setApprovalForAll}."
      },
      "supportsInterface(bytes4)": {
        "details": "See {IERC165-supportsInterface}."
      },
      "symbol()": {
        "details": "See {IERC721Metadata-symbol}."
      },
      "tokenByIndex(uint256)": {
        "details": "See {IERC721Enumerable-tokenByIndex}."
      },
      "tokenOfOwnerByIndex(address,uint256)": {
        "details": "See {IERC721Enumerable-tokenOfOwnerByIndex}."
      },
      "tokenURI(uint256)": {
        "details": "See {IERC721Metadata-tokenURI}."
      },
      "totalSupply()": {
        "details": "See {IERC721Enumerable-totalSupply}."
      },
      "transferFrom(address,address,uint256)": {
        "details": "See {IERC721-transferFrom}."
      }
    },
    "version": 1
  },
  "userdoc": {
    "kind": "user",
    "methods": {
      "addAdmin(address)": {
        "notice": "Admin can add admin"
      },
      "getTokenIdsByOwner(address)": {
        "notice": "Get all token ids of _owner"
      },
      "mint(address,uint32,uint32)": {
        "notice": "Only store contract can mint Mint token to _to, with _total total and _remain remain"
      },
      "removeAdmin(address)": {
        "notice": "Admin can remove admin"
      },
      "setUri(uint32,uint32,string)": {
        "notice": "Admin can set the uri"
      }
    },
    "version": 1
  },
  "storageLayout": {
    "storage": [
      {
        "astId": 25,
        "contract": "contracts/NFT.sol:NFT",
        "label": "_name",
        "offset": 0,
        "slot": "0",
        "type": "t_string_storage"
      },
      {
        "astId": 27,
        "contract": "contracts/NFT.sol:NFT",
        "label": "_symbol",
        "offset": 0,
        "slot": "1",
        "type": "t_string_storage"
      },
      {
        "astId": 31,
        "contract": "contracts/NFT.sol:NFT",
        "label": "_owners",
        "offset": 0,
        "slot": "2",
        "type": "t_mapping(t_uint256,t_address)"
      },
      {
        "astId": 35,
        "contract": "contracts/NFT.sol:NFT",
        "label": "_balances",
        "offset": 0,
        "slot": "3",
        "type": "t_mapping(t_address,t_uint256)"
      },
      {
        "astId": 39,
        "contract": "contracts/NFT.sol:NFT",
        "label": "_tokenApprovals",
        "offset": 0,
        "slot": "4",
        "type": "t_mapping(t_uint256,t_address)"
      },
      {
        "astId": 45,
        "contract": "contracts/NFT.sol:NFT",
        "label": "_operatorApprovals",
        "offset": 0,
        "slot": "5",
        "type": "t_mapping(t_address,t_mapping(t_address,t_bool))"
      },
      {
        "astId": 979,
        "contract": "contracts/NFT.sol:NFT",
        "label": "_ownedTokens",
        "offset": 0,
        "slot": "6",
        "type": "t_mapping(t_address,t_mapping(t_uint256,t_uint256))"
      },
      {
        "astId": 983,
        "contract": "contracts/NFT.sol:NFT",
        "label": "_ownedTokensIndex",
        "offset": 0,
        "slot": "7",
        "type": "t_mapping(t_uint256,t_uint256)"
      },
      {
        "astId": 986,
        "contract": "contracts/NFT.sol:NFT",
        "label": "_allTokens",
        "offset": 0,
        "slot": "8",
        "type": "t_array(t_uint256)dyn_storage"
      },
      {
        "astId": 990,
        "contract": "contracts/NFT.sol:NFT",
        "label": "_allTokensIndex",
        "offset": 0,
        "slot": "9",
        "type": "t_mapping(t_uint256,t_uint256)"
      },
      {
        "astId": 2538,
        "contract": "contracts/NFT.sol:NFT",
        "label": "admins",
        "offset": 0,
        "slot": "10",
        "type": "t_mapping(t_address,t_bool)"
      },
      {
        "astId": 2542,
        "contract": "contracts/NFT.sol:NFT",
        "label": "total",
        "offset": 0,
        "slot": "11",
        "type": "t_mapping(t_uint256,t_uint32)"
      },
      {
        "astId": 2546,
        "contract": "contracts/NFT.sol:NFT",
        "label": "remaining",
        "offset": 0,
        "slot": "12",
        "type": "t_mapping(t_uint256,t_uint32)"
      },
      {
        "astId": 2550,
        "contract": "contracts/NFT.sol:NFT",
        "label": "uris",
        "offset": 0,
        "slot": "13",
        "type": "t_mapping(t_uint64,t_string_storage)"
      }
    ],
    "types": {
      "t_address": {
        "encoding": "inplace",
        "label": "address",
        "numberOfBytes": "20"
      },
      "t_array(t_uint256)dyn_storage": {
        "base": "t_uint256",
        "encoding": "dynamic_array",
        "label": "uint256[]",
        "numberOfBytes": "32"
      },
      "t_bool": {
        "encoding": "inplace",
        "label": "bool",
        "numberOfBytes": "1"
      },
      "t_mapping(t_address,t_bool)": {
        "encoding": "mapping",
        "key": "t_address",
        "label": "mapping(address => bool)",
        "numberOfBytes": "32",
        "value": "t_bool"
      },
      "t_mapping(t_address,t_mapping(t_address,t_bool))": {
        "encoding": "mapping",
        "key": "t_address",
        "label": "mapping(address => mapping(address => bool))",
        "numberOfBytes": "32",
        "value": "t_mapping(t_address,t_bool)"
      },
      "t_mapping(t_address,t_mapping(t_uint256,t_uint256))": {
        "encoding": "mapping",
        "key": "t_address",
        "label": "mapping(address => mapping(uint256 => uint256))",
        "numberOfBytes": "32",
        "value": "t_mapping(t_uint256,t_uint256)"
      },
      "t_mapping(t_address,t_uint256)": {
        "encoding": "mapping",
        "key": "t_address",
        "label": "mapping(address => uint256)",
        "numberOfBytes": "32",
        "value": "t_uint256"
      },
      "t_mapping(t_uint256,t_address)": {
        "encoding": "mapping",
        "key": "t_uint256",
        "label": "mapping(uint256 => address)",
        "numberOfBytes": "32",
        "value": "t_address"
      },
      "t_mapping(t_uint256,t_uint256)": {
        "encoding": "mapping",
        "key": "t_uint256",
        "label": "mapping(uint256 => uint256)",
        "numberOfBytes": "32",
        "value": "t_uint256"
      },
      "t_mapping(t_uint256,t_uint32)": {
        "encoding": "mapping",
        "key": "t_uint256",
        "label": "mapping(uint256 => uint32)",
        "numberOfBytes": "32",
        "value": "t_uint32"
      },
      "t_mapping(t_uint64,t_string_storage)": {
        "encoding": "mapping",
        "key": "t_uint64",
        "label": "mapping(uint64 => string)",
        "numberOfBytes": "32",
        "value": "t_string_storage"
      },
      "t_string_storage": {
        "encoding": "bytes",
        "label": "string",
        "numberOfBytes": "32"
      },
      "t_uint256": {
        "encoding": "inplace",
        "label": "uint256",
        "numberOfBytes": "32"
      },
      "t_uint32": {
        "encoding": "inplace",
        "label": "uint32",
        "numberOfBytes": "4"
      },
      "t_uint64": {
        "encoding": "inplace",
        "label": "uint64",
        "numberOfBytes": "8"
      }
    }
  }
}